:020000040800F2
:100000000010002079120008C9120008C912000867
:1000100000000000000000000000000000000000E0
:10002000000000000000000000000000C9120008ED
:100030000000000000000000C91200088905000847
:10004000C912000800000000C9120008C912000807
:10005000C91200083D07000871070008A50700083D
:100060000000000085060008A1060008CD06000873
:10007000C9120008D1060008F106000800000000BF
:10008000F906000800000000000000001907000841
:10009000000000001B0700081D070008C912000827
:1000A00000000000C912000800000000210700083D
:1000B0000000000000000000000000000000000040
:1000C0000448054B10B5834203D0044B002B00D0ED
:1000D000984710BDA0030020A003002000000000EE
:1000E00006480749091A8B10C90FC91810B54910DD
:1000F00003D0044B002B00D0984710BDA003002074
:10010000A00300200000000010B5074C2378002B4E
:1001100009D1FFF7D5FF054B002B02D0044800E0C2
:1001200000BF0123237010BDA003002000000000C9
:10013000CC120008054B10B5002B03D0044905482C
:1001400000E000BFFFF7CCFF10BDC046000000007C
:10015000A4030020CC12000870B50C4D0C4E761B89
:10016000B61005D0002408CD01349847A642FAD134
:1001700001F0ACF8074D084E761BB61005D00024F0
:1001800008CD01349847A642FAD170BD0813000883
:10019000081300080813000810130008F0B5050044
:1001A00083074AD0541E002A44D0CEB20300032253
:1001B00002E00135013C3DD301332E701342F8D1EA
:1001C000032C2FD9FF220A40150215432A04154398
:1001D0000F2C35D92700103F3F093E01B4461E00C1
:1001E0001A0010366644156055609560D56010326F
:1001F000B242F8D10F260C2201373F012640DB190D
:100200003700224217D03E1FB608B400A4461A0099
:100210001C1D644420C2A242FCD103240136B60056
:100220009B193C40002C05D0C9B21C191970013330
:100230009C42FBD1F0BD3400F4E714000300BFE79B
:100240002700E0E7002243088B4274D303098B4266
:100250005FD3030A8B4244D3030B8B4228D3030C96
:100260008B420DD3FF22090212BA030C8B4202D338
:100270001212090265D0030B8B4219D300E0090A60
:10028000C30B8B4201D3CB03C01A5241830B8B4269
:1002900001D38B03C01A5241430B8B4201D34B0352
:1002A000C01A5241030B8B4201D30B03C01A5241B7
:1002B000C30A8B4201D3CB02C01A5241830A8B423C
:1002C00001D38B02C01A5241430A8B4201D34B0225
:1002D000C01A5241030A8B4201D30B02C01A524189
:1002E000CDD2C3098B4201D3CB01C01A524183093D
:1002F0008B4201D38B01C01A524143098B4201D377
:100300004B01C01A524103098B4201D30B01C01AA1
:100310005241C3088B4201D3CB00C01A524183081B
:100320008B4201D38B00C01A524143088B4201D348
:100330004B00C01A5241411A00D2014652411046A8
:100340007047FFE701B5002000F0F0F802BDC0469D
:100350000029F7D076E7704703460B437FD400228D
:1003600043088B4274D303098B425FD3030A8B4249
:1003700044D3030B8B4228D3030C8B420DD3FF22B3
:10038000090212BA030C8B4202D31212090265D081
:10039000030B8B4219D300E0090AC30B8B4201D334
:1003A000CB03C01A5241830B8B4201D38B03C01A7B
:1003B0005241430B8B4201D34B03C01A5241030BF2
:1003C0008B4201D30B03C01A5241C30A8B4201D3A3
:1003D000CB02C01A5241830A8B4201D38B02C01A4E
:1003E0005241430A8B4201D34B02C01A5241030AC5
:1003F0008B4201D30B02C01A5241CDD2C3098B42AA
:1004000001D3CB01C01A524183098B4201D38B0126
:10041000C01A524143098B4201D34B01C01A5241C9
:1004200003098B4201D30B01C01A5241C3088B420E
:1004300001D3CB00C01A524183088B4201D38B00F9
:10044000C01A524143088B4201D34B00C01A52419B
:10045000411A00D201465241104670475DE0CA0F72
:1004600000D04942031000D34042534000229C4632
:1004700003098B422DD3030A8B4212D3FC2289013C
:1004800012BA030A8B420CD3890192118B4208D312
:10049000890192118B4204D389013AD0921100E074
:1004A0008909C3098B4201D3CB01C01A5241830988
:1004B0008B4201D38B01C01A524143098B4201D3B5
:1004C0004B01C01A524103098B4201D30B01C01AE0
:1004D0005241C3088B4201D3CB00C01A524183085A
:1004E0008B4201D38B00C01A5241D9D243088B42B0
:1004F00001D34B00C01A5241411A00D20146634653
:1005000052415B10104601D34042002B00D54942B6
:10051000704763465B1000D3404201B5002000F0F5
:1005200005F802BD0029F8D016E770477047C046AD
:10053000436901334361704710B50400002C05D0B6
:10054000236820001B6898476468F7E710BD10B562
:100550000468002C05D0236820001B689847A46815
:10056000F7E710BD10B504000830FFF7F0FF206971
:100570006169431C2361FFF7EBFE002902D12000D3
:10058000FFF7E5FF10BD000010B50248FFF7EAFFD6
:1005900010BDC0466C060020037B002B0DD000234D
:1005A000426803738368002A0ED0002B08D0936042
:1005B00083685A6000234360836070470B60F8E7EC
:1005C000044993604A60F5E70249002BF6D10B60BD
:1005D0004B60EFE76C06002070B504008069E569A8
:1005E000461C2900A661FFF7B3FE002905D1216949
:1005F0000A688B89106A03431362AE420AD1002352
:100600002169A3610A688989136A20008B431362F8
:10061000FFF7C2FF70BD002310B54361FFF7BCFFB9
:1006200010BD0000037B002B0CD101330373064B7C
:100630005A684260002A00D090601A685860002A08
:1006400000D118607047C0466C0600200300080007
:1006500006CB0123002802D093408B6170471032F3
:10066000FAE7012901D142637047022901D182636F
:10067000FAE7032901D1C263F6E70429F4D1026441
:10068000F2E70000044B10B51868FFF755FF012290
:10069000024B5A6010BDC0469C050020000002407D
:1006A000074B10B51868FFF747FF1023054C636030
:1006B000054B1868FFF740FF80235B00636010BDA7
:1006C000A405002000000240AC050020FEE7000069
:1006D000054B10B51868FFF72FFF0121034A138A55
:1006E0008B43138210BDC04654060020002C0140ED
:1006F00010B5FFF7EDFF10BD054B10B51868FFF7FB
:100700001BFF0121034A138A8B43138210BDC0468D
:100710005C06002000040040FEE7FEE7FEE7000064
:10072000044B10B51868FFF707FF0122024B524235
:100730001A6210BD640600200038014010B5094C53
:100740006369DB0703D5084B1868FFF7F5FE63699B
:100750009B0703D5054B1868FFF7EEFE0323636183
:1007600010BDC04600040140C4050020CC05002097
:1007700010B5094C63695B0703D5084B1868FFF790
:10078000DBFE63691B0703D5054B1868FFF7D4FE32
:100790000C23636110BDC046000401400406002024
:1007A0000C06002010B5304C6369DB0603D52F4BD7
:1007B0001868FFF7C1FE63699B0603D52C4B1868C8
:1007C000FFF7BAFE63695B0603D52A4B1868FFF78B
:1007D000B3FE63691B0603D5274B1868FFF7ACFE11
:1007E0006369DB0503D5254B1868FFF7A5FE636930
:1007F0009B0503D5224B1868FFF79EFE63695B05D6
:1008000003D5204B1868FFF797FE63691B0503D5D6
:100810001D4B1868FFF790FE6369DB0403D51B4B83
:100820001868FFF789FE63699B0403D5184B1868A5
:10083000FFF782FE63695B0403D5164B1868FFF768
:100840007BFE63691B0403D5134B1868FFF774FE26
:100850001022052301200100994001330A43102B87
:10086000F9D1626110BDC0460004014014060020A9
:100870001C060020240600202C0600203406002040
:100880003C060020D4050020DC050020E405002003
:10089000EC050020F4050020FC050020FA2110B52D
:1008A00044680088238989005843FFF755FDA17AE1
:1008B00002002068FFF7D5FE10BD0000F021114BAB
:1008C0005A688A435A605A680F490A4003215A609D
:1008D0005A688A43110002220A435A605A680B4937
:1008E0000A405A605A680A491140A02292030A43FA
:1008F0005A608022196852040A431A601A689201E9
:10090000FCD5704700100240FFF8FFFFFFFFFEFF1D
:10091000FFFFC3FF0123F7B5334E344A3168344C2F
:100920000190194231D1334D33492868184205D11D
:100930009027FF050F6008272B604F6080255369C3
:10094000AD022B4353610B682C4F186838400543A8
:100950000F201D605D6A8543AC4602256046054355
:100960005D62DD683D40DD60254B6160236001997B
:100970000123E18100215B4223810233A372A38121
:10098000218264612183E4613360802391691B01CA
:100990000B437021936123689A698A431100602296
:1009A0000A439A61082299690A439A618022196868
:1009B0000A431A608022596C12020A435A640122C7
:1009C00019680A431A60B723228A9B009A4209D009
:1009D000606923820B4B0C4A038103681830DA628A
:1009E000FFF75CFF2000FEBD640400200010024001
:1009F00068040020880400208C040020FFFFFCFF16
:100A0000002C01401280FFFF12800000F7B5012189
:100A1000664B1A680A4205D1654C664A1960146033
:100A20000A24546080218025634BC9025C69614AB5
:100A3000214359611168614F0E686D033E40354393
:100A40000D600125CC683C40CC605D4C5D4922685E
:100A50002A4204D1564E25600E6002264E60802444
:100A600030275D69E40225435D610D682E68BE4351
:100A7000B4461026624616432E60EE68BE43EE6012
:100A8000514E0125376801943A00504C2A402F42BC
:100A900003D1474F6260276035605D69019A012785
:100AA0002A435A6103222668356895433D433560E1
:100AB000F5689543F560464E464D32683A4205D199
:100AC0009022D2052A60072237606A6080265F691B
:100AD000B6023E4380275E612D683F4A2E68FF01C3
:100AE000164037432F600127EE681640EE603B4EFC
:100AF0003B4D32683A4205D19022D2052A60062247
:100B000037606A6080265F69B6023E4380275E6177
:100B10002D68344A2E687F01164037432F60012725
:100B2000EE681640EE60304E304D32683A4204D1E5
:100B30001F4A37602A600C226A6080265F69F602CD
:100B40003E4380275E612D68294A2E687F04164047
:100B500037432F60EE681640EE600126254D2A6867
:100B6000324205D1244F124A2E603A600B227A603D
:100B700080255E69ED02354380261F4F5D613B682D
:100B80001E4A1D68F60315402E431E60DD681540A1
:100B9000DD60164B07604360114B046183600D4BB1
:100BA0004161C360034B8361FEBDC0464C0400201D
:100BB000000400485004002000100240FFFFCFFF57
:100BC00040040020440400203404002038040020A5
:100BD000280400202C040020FF3FFFFF1C040020FD
:100BE00020040020FFCFFFFF100400201404002089
:100BF000FFFFFFFC0404002008040020FFFF3FFF6C
:100C0000030030B50A6830CA30C34A6830CA30C3FE
:100C10008A6830CA30C3CA6830CA30C30A6930CA69
:100C200030C34A6930CA30C38A6912CA12C330BDA0
:100C30000122574BF0B51C685649144204D1564C5A
:100C40001A600C6003244C608022544BC0265C69FF
:100C5000D202224340245A610A681568B5432C43E6
:100C600001251460D468B443D4604D4A4D4C1668D5
:100C70002E4205D19026F60526600F261560666087
:100C8000802280265D6992022A435A612568F60512
:100C90002A6892009208324301262A60EA6892008C
:100CA0009208EA60404D2A68324205D13A4F3F4AE5
:100CB0002E6017600927576080265D69F60235436C
:100CC0003A4A5D6115683A4F2A683A4016432E60E9
:100CD000EE683E400127EE60364E374D32683A42AC
:100CE00004D12D4A37602A6008226A6080265F6935
:100CF000F6023E4380275E612D68304A2E687F02EF
:100D0000164037432F600127EE681640EE602C4EE8
:100D10002C4D32683A4204D11F4A37602A600722BC
:100D20006A6080265F69F6023E4380275E612D6817
:100D3000254A2E68FF01164037432F60EE681640A3
:100D4000EE600126214D2A68324205D1204F124A19
:100D50002E603A6006227A6080255E69ED02354396
:100D600080261B4F5D613B681A4A1D68760115405D
:100D70002E431E60DD681540DD60124B0760436046
:100D80000D4B04618360094B4161C360F0BDC046F7
:100D9000F8030020FC03002000040048001002407B
:100DA000EC030020F0030020E0030020E403002017
:100DB000FFFFF3FFD4030020D8030020FFFFFCFF58
:100DC000C8030020CC030020FF3FFFFFBC0300202E
:100DD000C0030020FFCFFFFFF8B504001625002256
:100DE000E8B2A31819000126943108709A331978D3
:100DF000921971401970062AF3D126002700462364
:100E00007C368C3730003B60FFF70CFC21009031C2
:100E10000A683B689A42FBD330000135FFF7FBFBC1
:100E20001C2DDCD1F8BD0000344B30B5036000232D
:100E3000040089B04360836083818373C17301A818
:100E4000FFF7E4FD200001A91030FFF7D9FE0122D1
:100E50002B492C4B0868104203D12B485A6018606C
:100E60000A6080222949D20248690C2502434A615E
:100E700004211A681068A84301431160D16801A8D1
:100E8000A943D160A364FFF7D3FE23000025019A94
:100E90004C3303CA03C3029A03CA03C3039A03CAA7
:100EA00003C3049A03CA03C3059A03CA03C3069A79
:100EB00003CA03C3231DDD670433DD6774331D7369
:100EC000134B2000E36723008C331D6029005D6015
:100ED00006229430FFF762F92000062229009A309A
:100EE000FFF75CF92000FFF79DFB2000FFF774FF80
:100EF0002000FFF771FF200009B030BD0413000887
:100F0000580400205C040020000400480010024047
:100F1000EC120008FA20F0B54000BFB0FFF7FAFC71
:100F2000002305000590F52001AC2373A3826360C4
:100F3000A360A3610133224AE3612B8B019240003D
:100F400083420FD0EE69F38983420BD3FA212883C1
:100F5000338989005843FFF7FFF9B17A02003068FE
:100F6000FFF77FFB174B2A8A9A4208D068692B82C9
:100F70000268154B0381D3621830FFF78FFC002500
:100F8000FA26022109A8FFF74FFF104F35AB1D705D
:100F9000760032A83695319437953395349532974B
:100FA0003696FFF73FFB3BAB20001D703C95399513
:100FB0003A9538973D95E661FFF734FB30BFFDE782
:100FC000F8120008170400008A590000EC1200080B
:100FD00070B50D00896904004B1E99413030C9B2CB
:100FE000FFF734FB696920004B1E99412830C9B2D4
:100FF000FFF72CFB296920004B1E99412030C9B214
:10100000FFF724FBE96820004B1E99411830C9B254
:10101000FFF71CFBA96820004B1E99411030C9B294
:10102000FFF714FB696820004B1E99410830C9B2D4
:10103000FFF70CFB296820004B1E9941C9B2FFF74E
:1010400005FB70BD70B5837BC27B0133DBB204004E
:1010500083739A4251D100261C21437B8673C318A7
:1010600094331B7810305943244B1825C918FFF7C7
:10107000AFFF0121637BA06CE3189A331B785940C2
:10108000FFF7E4FA637B20005D431D4B7430ED18DD
:1010900069694B1E9941C9B2FFF7D8FA2969200046
:1010A0004B1E99416C30C9B2FFF7D0FAE9682000B5
:1010B0004B1E99416430C9B2FFF7C8FAA9682000F5
:1010C0004B1E99415C30C9B2FFF7C0FA6968200035
:1010D0004B1E99415430C9B2FFF7B8FA2968200075
:1010E0004B1E99414C30C9B2FFF7B0FA637B013314
:1010F000DBB2062B00D13300637370BD000000200B
:101100001003002070B5012200243D4B02251C6015
:101110005C609C605A61DC601C613A4B3A4E196815
:10112000914319603949596004219C601868014352
:10113000196019683000294319601968FF360A439D
:101140001A60842221005200FFF728F81922304B40
:1011500074711D711C602F4B1A711C602E4B52193B
:101160001A711C602D4B0E3A1A711C602C4B033205
:101170001A711C602B4B073A1A711C602A4B013202
:101180001A711C60294B1A711C60294B01321A71AB
:101190001C60284B1A711C60274B063A1C601A71A0
:1011A000264B1A711C60264B01321A711C60254BAC
:1011B0001A711C600723244A13711460234A1371A7
:1011C0001460234A13711460224A13711460224A76
:1011D00013711460214A13711460214A1371146051
:1011E000204A14601371204A146013711F4A14605E
:1011F00013711F4A146013711E4A1460137170BD7D
:101200006C06002010E000E0940400207FBB00008A
:10121000440600204C0600206406002054060020EE
:101220005C0600209C050020A4050020AC050020E1
:10123000B4050020BC050020C4050020CC0500201A
:10124000040600200C060020140600201C060020C6
:10125000240600202C060020340600203C06002036
:10126000D4050020DC050020E4050020EC0500206A
:10127000F4050020FC0500200D4885460D480E4968
:101280000E4A002302E0D458C4500433C4188C42E0
:10129000F9D30B4A0B4C002301E013600432A24245
:1012A000FBD3FFF70BFBFEF757FFFFF733FEFEE71D
:1012B0000010002000000020A003002014130008EC
:1012C000A003002084060020FEE70000F8B5C04619
:1012D000F8BC08BC9E467047F8B5C046F8BC08BCD0
:0412E0009E4670476F
:1012E40000000000000000003105000800000000BC
:1012F40000000000D9050008000000000000000004
:041304004510000888
:08130800350100080511000881
:0413100009010008C7
:1013140001000000000000000000000000000000C8
:1013240000000000000000000000000001000000B8
:1013340001000000010000000100000000000000A6
:101344000000000001000000000000000100000097
:101354000000000000000000010000000000000088
:101364000000000000000000010000000100000077
:101374000000000000000000000000000000000069
:101384000000000000000000010000000100000057
:101394000000000000000000010000000000000048
:1013A4000000000001000000000000000000000038
:1013B4000100000000000000000000000000000028
:1013C4000000000000000000000000000100000018
:1013D4000000000001000000010000000100000006
:1013E40001000000000000000000000000000000F8
:1013F40000000000000000000000000000000000E9
:1014040000000000000000000000000000000000D8
:1014140000000000010000000000000000000000C7
:1014240000000000000000000000000000000000B8
:1014340000000000010000000000000000000000A7
:101444000100000001000000000000000000000096
:101454000000000001000000010000000100000085
:101464000100000001000000010000000100000074
:101474000100000001000000010000000000000065
:101484000100000001000000010000000100000054
:101494000100000001000000010000000000000045
:1014A4000000000000000000010000000100000036
:1014B4000000000001000000010000000100000025
:1014C4000100000001000000010000000100000014
:1014D4000100000001000000010000000100000004
:1014E40001000000010000000100000001000000F4
:1014F40001000000010000000100000001000000E4
:1015040001000000010000000100000001000000D3
:1015140001000000010000000100000001000000C3
:1015240001000000010000000100000001000000B3
:1015340001000000010000000100000001000000A3
:101544000100000001000000010000000100000093
:101554000100000001000000010000000000000084
:101564000100000001000000010000000100000073
:101574000100000001000000000000000100000064
:101584000100000001000000010000000000000054
:101594000100000000000000010000000100000044
:1015A4000100000001000000010000000000000034
:1015B4000000000000000000010000000100000025
:1015C4000100000001000000010000000000000014
:1015D4000100000000000000010000000100000004
:1015E40001000000010000000000000001000000F4
:1015F40001000000000000000100000001000000E4
:1016040001000000000000000100000001000000D3
:1016140001000000000000000100000001000000C3
:1016240001000000000000000000000000000000B5
:1016340000000000000000000000000001000000A5
:101644000000000000000000000000000000000096
:101654000000000000000000010000000000000085
:101664000000000000000000000000000000000076
:101674000000000001000000000000000000000065
:101684000000000000000000000000000000000056
:101694000100000000000000000000000000000045
:1016A4000000000000000000000000000100000035
:040000050800127964
:00000001FF
