:020000040800F2
:100000000010002089120008D9120008D912000837
:1000100000000000000000000000000000000000E0
:10002000000000000000000000000000D9120008DD
:100030000000000000000000D91200088905000837
:10004000D912000800000000D9120008D9120008D7
:10005000D9120008690800089D080008D1080008A6
:1000600000000000B1070008CD070008F9070008EC
:10007000D9120008FD0700081D0800080000000054
:1000800025080008000000000000000045080008E6
:10009000000000004708000849080008D9120008BD
:1000A00000000000D9120008000000004D08000800
:1000B0000000000000000000000000000000000040
:1000C0000448054B10B5834203D0044B002B00D0ED
:1000D000984710BDA0030020A003002000000000EE
:1000E00006480749091A8B10C90FC91810B54910DD
:1000F00003D0044B002B00D0984710BDA003002074
:10010000A00300200000000010B5074C2378002B4E
:1001100009D1FFF7D5FF054B002B02D0044800E0C2
:1001200000BF0123237010BDA003002000000000C9
:10013000DC120008054B10B5002B03D0044905481C
:1001400000E000BFFFF7CCFF10BDC046000000007C
:10015000A4030020DC12000870B50C4D0C4E761B79
:10016000B61005D0002408CD01349847A642FAD134
:1001700001F0B4F8074D084E761BB61005D00024E8
:1001800008CD01349847A642FAD170BD1813000873
:10019000181300081813000820130008F0B5050014
:1001A00083074AD0541E002A44D0CEB20300032253
:1001B00002E00135013C3DD301332E701342F8D1EA
:1001C000032C2FD9FF220A40150215432A04154398
:1001D0000F2C35D92700103F3F093E01B4461E00C1
:1001E0001A0010366644156055609560D56010326F
:1001F000B242F8D10F260C2201373F012640DB190D
:100200003700224217D03E1FB608B400A4461A0099
:100210001C1D644420C2A242FCD103240136B60056
:100220009B193C40002C05D0C9B21C191970013330
:100230009C42FBD1F0BD3400F4E714000300BFE79B
:100240002700E0E7002243088B4274D303098B4266
:100250005FD3030A8B4244D3030B8B4228D3030C96
:100260008B420DD3FF22090212BA030C8B4202D338
:100270001212090265D0030B8B4219D300E0090A60
:10028000C30B8B4201D3CB03C01A5241830B8B4269
:1002900001D38B03C01A5241430B8B4201D34B0352
:1002A000C01A5241030B8B4201D30B03C01A5241B7
:1002B000C30A8B4201D3CB02C01A5241830A8B423C
:1002C00001D38B02C01A5241430A8B4201D34B0225
:1002D000C01A5241030A8B4201D30B02C01A524189
:1002E000CDD2C3098B4201D3CB01C01A524183093D
:1002F0008B4201D38B01C01A524143098B4201D377
:100300004B01C01A524103098B4201D30B01C01AA1
:100310005241C3088B4201D3CB00C01A524183081B
:100320008B4201D38B00C01A524143088B4201D348
:100330004B00C01A5241411A00D2014652411046A8
:100340007047FFE701B5002000F0F0F802BDC0469D
:100350000029F7D076E7704703460B437FD400228D
:1003600043088B4274D303098B425FD3030A8B4249
:1003700044D3030B8B4228D3030C8B420DD3FF22B3
:10038000090212BA030C8B4202D31212090265D081
:10039000030B8B4219D300E0090AC30B8B4201D334
:1003A000CB03C01A5241830B8B4201D38B03C01A7B
:1003B0005241430B8B4201D34B03C01A5241030BF2
:1003C0008B4201D30B03C01A5241C30A8B4201D3A3
:1003D000CB02C01A5241830A8B4201D38B02C01A4E
:1003E0005241430A8B4201D34B02C01A5241030AC5
:1003F0008B4201D30B02C01A5241CDD2C3098B42AA
:1004000001D3CB01C01A524183098B4201D38B0126
:10041000C01A524143098B4201D34B01C01A5241C9
:1004200003098B4201D30B01C01A5241C3088B420E
:1004300001D3CB00C01A524183088B4201D38B00F9
:10044000C01A524143088B4201D34B00C01A52419B
:10045000411A00D201465241104670475DE0CA0F72
:1004600000D04942031000D34042534000229C4632
:1004700003098B422DD3030A8B4212D3FC2289013C
:1004800012BA030A8B420CD3890192118B4208D312
:10049000890192118B4204D389013AD0921100E074
:1004A0008909C3098B4201D3CB01C01A5241830988
:1004B0008B4201D38B01C01A524143098B4201D3B5
:1004C0004B01C01A524103098B4201D30B01C01AE0
:1004D0005241C3088B4201D3CB00C01A524183085A
:1004E0008B4201D38B00C01A5241D9D243088B42B0
:1004F00001D34B00C01A5241411A00D20146634653
:1005000052415B10104601D34042002B00D54942B6
:10051000704763465B1000D3404201B5002000F0F5
:1005200005F802BD0029F8D016E770477047C046AD
:10053000436901334361704710B50400002C05D0B6
:10054000236820001B6898476468F7E710BD10B562
:100550000468002C05D0236820001B689847A46815
:10056000F7E710BD10B504000830FFF7F0FF206971
:100570006169431C2361FFF7EBFE002902D12000D3
:10058000FFF7E5FF10BD000010B50248FFF7EAFFD6
:1005900010BDC0466C060020037B002B0DD000234D
:1005A000426803738368002A0ED0002B08D0936042
:1005B00083685A6000234360836070470B60F8E7EC
:1005C000044993604A60F5E70249002BF6D10B60BD
:1005D0004B60EFE76C06002070B504008069E569A8
:1005E000461C2900A661FFF7B3FE002905D1216949
:1005F0000A688B89106A03431362AE420AD1002352
:100600002169A3610A688989136A20008B431362F8
:10061000FFF7C2FF70BD002310B54361FFF7BCFFB9
:1006200010BD0000037B002B0CD101330373064B7C
:100630005A684260002A00D090601A685860002A08
:1006400000D118607047C0466C0600200300080007
:1006500006CB0123002802D093408B6170471032F3
:10066000FAE7000070B5837BC27B0133DBB2040084
:1006700083739A4200D085E000261C25437B867355
:10068000C31894331B7840305D433F4BED18A96984
:100690004B1E9941C9B2FFF7D9FF696920004B1E73
:1006A00099413830C9B2FFF7D1FF296920004B1EAC
:1006B00099413030C9B2FFF7C9FFE96820004B1EED
:1006C00099412830C9B2FFF7C1FFA96820004B1E2D
:1006D00099412030C9B2FFF7B9FF696820004B1E6D
:1006E00099411830C9B2FFF7B1FF296820004B1EAD
:1006F00099411030C9B2FFF7A9FF01211825637B8A
:10070000A06CE3189A331B785940FFF79FFF637B77
:1007100020005D431D4B7430ED1869694B1E9941F3
:10072000C9B2FFF793FF296920004B1E99416C3035
:10073000C9B2FFF78BFFE96820004B1E9941643076
:10074000C9B2FFF783FFA96820004B1E99415C30B6
:10075000C9B2FFF77BFF696820004B1E99415430F6
:10076000C9B2FFF773FF296820004B1E99414C3036
:10077000C9B2FFF76BFF637B0133DBB2062B00D1FD
:100780003300637370BDC0460000002010030020DA
:10079000012901D142637047022901D18263FAE73E
:1007A000032901D1C263F6E70429F4D10264F2E718
:1007B000044B10B51868FFF7BFFE0122024B5A60C8
:1007C00010BDC0469C05002000000240074B10B53C
:1007D0001868FFF7B1FE1023054C6360054B1868DD
:1007E000FFF7AAFE80235B00636010BDA405002014
:1007F00000000240AC050020FEE70000054B10B5EC
:100800001868FFF799FE0121034A138A8B4313826C
:1008100010BDC04654060020002C014010B5FFF763
:10082000EDFF10BD054B10B51868FFF785FE0121DF
:10083000034A138A8B43138210BDC0465C06002016
:1008400000040040FEE7FEE7FEE70000044B10B5A1
:100850001868FFF771FE0122024B52421A6210BD66
:10086000640600200038014010B5094C6369DB07BD
:1008700003D5084B1868FFF75FFE63699B0703D534
:10088000054B1868FFF758FE0323636110BDC0468F
:1008900000040140C4050020CC05002010B5094C1F
:1008A00063695B0703D5084B1868FFF745FE63696A
:1008B0001B0703D5054B1868FFF73EFE0C23636149
:1008C00010BDC04600040140040600200C060020B4
:1008D00010B5304C6369DB0603D52F4B1868FFF762
:1008E0002BFE63699B0603D52C4B1868FFF724FE8B
:1008F00063695B0603D52A4B1868FFF71DFE636921
:100900001B0603D5274B1868FFF716FE6369DB0546
:1009100003D5254B1868FFF70FFE63699B0503D5C8
:10092000224B1868FFF708FE63695B0503D5204B6F
:100930001868FFF701FE63691B0503D51D4B186896
:10094000FFF7FAFD6369DB0403D51B4B1868FFF75B
:10095000F3FD63699B0403D5184B1868FFF7ECFDA2
:1009600063695B0403D5164B1868FFF7E5FD6369FF
:100970001B0403D5134B1868FFF7DEFD1022052377
:1009800001200100994001330A43102BF9D1626123
:1009900010BDC04600040140140600201C060020C3
:1009A000240600202C060020340600203C060020EF
:1009B000D4050020DC050020E4050020EC05002023
:1009C000F4050020FC050020FA2110B544680088D9
:1009D000238989005843FFF7BFFCA17A02002068F1
:1009E000FFF7D6FE10BD0000F021114B5A688A4374
:1009F0005A605A680F490A4003215A605A688A436C
:100A0000110002220A435A605A680B490A405A6090
:100A10005A680A491140A02292030A435A60802270
:100A2000196852040A431A601A689201FCD570478B
:100A300000100240FFF8FFFFFFFFFEFFFFFFC3FFB4
:100A40000123F7B5334E344A3168344C01901942D2
:100A500031D1334D33492868184205D19027FF051D
:100A60000F6008272B604F6080255369AD022B4330
:100A700053610B682C4F1868384005430F201D60E8
:100A80005D6A8543AC460225604605435D62DD68CC
:100A90003D40DD60254B6160236001990123E181C8
:100AA00000215B4223810233A372A381218264610E
:100AB0002183E4613360802391691B010B43702122
:100AC000936123689A698A43110060220A439A61FC
:100AD000082299690A439A61802219680A431A60B8
:100AE0008022596C12020A435A64012219680A438F
:100AF0001A60B723228A9B009A4209D06069238238
:100B00000B4B0C4A038103681830DA62FFF75CFF75
:100B10002000FEBD64040020001002406804002094
:100B2000880400208C040020FFFFFCFF002C014003
:100B30001280FFFF12800000F7B50122674B196891
:100B4000114206D190246649E4050C6006241A601F
:100B50004C6080228025634B92025C69624F224385
:100B60005A615F4A6D01126816683E403543156050
:100B70000125D4683C40D4605C4A5D4C1168294230
:100B800005D19026F605266007261560666080224E
:100B900080265D6992022A435A612268554F156882
:100BA000F6013D402E431660D568534E3D40D5605A
:100BB000376801223900514D1140174203D1504F7F
:100BC00069602F60326080215A690327C9020A4395
:100BD0008C4601215A612E683268BA430A4332605A
:100BE000F268BA43F2606246464F01923A68464E56
:100BF0000A4203D1424A7160326039605F69019AEA
:100C00003A430C275A6132681668BE43B44604263C
:100C100061460E431660D668BE43D6603B4E0B3F1E
:100C200031683B4A394204D13549376011600221AD
:100C3000516080265F69F6023E4330275E6112688C
:100C40001668BE43B446102661460E431660D66849
:100C5000BE43D6602F4E2F3F31682F4A394204D110
:100C60002749376011600A21516080265F69F602CA
:100C70003E4380275E611268284916687F030E4054
:100C800037431760D6680E40D6600126244A1168A3
:100C9000314205D1234F1A49166039600B21796022
:100CA00080225E69D202324380261E4F5A613B6821
:100CB0001D491A68F6030A4016431E60DA680A40A6
:100CC000DA60154B07604360114B056183600E4B82
:100CD0004461C360024B8361FEBDC0464C040020EA
:100CE0005004002000100240FFCFFFFF400400200E
:100CF00044040020FF3FFFFF34040020380400209C
:100D000000040048280400202C0400201C040020BB
:100D1000200400201004002014040020FFFFCFFF57
:100D20000404002008040020FFFF3FFF0122574B6E
:100D3000F0B51C685649144204D1564C1A600C6038
:100D400003244C608022544BC0265C69D2022243AB
:100D500040245A610A681568B5432C430125146084
:100D6000D468B443D4604D4A4D4C16682E4205D128
:100D70009026F60526600F26156066608022802684
:100D80005D6992022A435A612568F6052A68920035
:100D90009208324301262A60EA6892009208EA60CB
:100DA000404D2A68324205D13A4F3F4A2E601760C3
:100DB0000927576080265D69F60235433A4A5D612E
:100DC00015683A4F2A683A4016432E60EE683E4056
:100DD0000127EE60364E374D32683A4204D12D4A33
:100DE00037602A6008226A6080265F69F6023E4307
:100DF00080275E612D68304A2E687F021640374397
:100E00002F600127EE681640EE602C4E2C4D3268A4
:100E10003A4204D11F4A37602A6007226A6080265E
:100E20005F69F6023E4380275E612D68254A2E6881
:100E3000FF01164037432F60EE681640EE60012632
:100E4000214D2A68324205D1204F124A2E603A6065
:100E500006227A6080255E69ED02354380261B4FAD
:100E60005D613B681A4A1D68760115402E431E607D
:100E7000DD681540DD60124B076043600D4B046177
:100E80008360094B4161C360F0BDC046F803002098
:100E9000FC0300200004004800100240EC03002086
:100EA000F0030020E0030020E4030020FFFFF3FF35
:100EB000D4030020D8030020FFFFFCFFC80300205C
:100EC000CC030020FF3FFFFFBC030020C003002035
:100ED000FFCFFFFFF8B5040016250022E8B2A318E3
:100EE00019000126943108709A33197892197140CB
:100EF0001970062AF3D12600270046237C368C374A
:100F000030003B60FFF78EFB210090310A683B68A0
:100F10009A42FBD330000135FFF77DFB1C2DDCD15D
:100F2000F8BD00003E4B70B503600023040088B09C
:100F3000C173436083608381837301A8FFF7FCFD65
:100F40002300019A103303CA03C3029A03CA03C3DE
:100F5000039A03CA03C3049A03CA03C3059A03CAC4
:100F600003C3069A03CA03C3079A03CA03C3012132
:100F70002C4A2D4B1068084204D12C48116018608F
:100F80000C20586080222A49D2024869294E024327
:100F900080204A611A684004156835402843106073
:100FA000D16801A83140D160A364FFF7BFFE2300E0
:100FB0000025019A4C3303CA03C3029A03CA03C330
:100FC000039A03CA03C3049A03CA03C3059A03CA54
:100FD00003C3069A03CA03C3231DDD670433DD6719
:100FE00074331D73144B2000E36723008C331D60A2
:100FF00029005D6006229430FFF7D0F82000062219
:1010000029009A30FFF7CAF82000FFF70BFB2000F9
:10101000FFF760FF2000FFF75DFF200008B070BD04
:1010200014130008580400205C0400200004004849
:1010300000100240FFFFFFFCFC120008FA2030B550
:101040004000B1B0FFF7FCFC00236A4613732E4A40
:10105000040000926A460490F52001930293938263
:10106000069301330793238B400083420FD0E56939
:10107000EB8983420BD3FA2120832B8989005843C3
:10108000FFF76AF9A97A02002868FFF781FB1F4B76
:10109000228A9A4208D06069238202681C4B03812D
:1010A000D3621830FFF790FC022108A8FFF73AFF3F
:1010B000FA2368465B000793FFF7B4FABA200822C8
:1010C00001232DAC6844B521694422700A70B62111
:1010D00069440A70B72169440A702EA90A70B921BF
:1010E00069440A70BB21694403700B702FA90B700F
:1010F000BD2169440B70BE2169440B70BF21694456
:101100000B7030BFDFE7C04608130008170400006B
:101110008A59000070B5012200243D4B02251C6055
:101120005C609C605A61DC601C613A4B3A4E196805
:10113000914319603949596004219C601868014342
:10114000196019683000294319601968FF360A438D
:101150001A60842221005200FFF720F81922304B38
:1011600074711D711C602F4B1A711C602E4B52192B
:101170001A711C602D4B0E3A1A711C602C4B0332F5
:101180001A711C602B4B073A1A711C602A4B0132F2
:101190001A711C60294B1A711C60294B01321A719B
:1011A0001C60284B1A711C60274B063A1C601A7190
:1011B000264B1A711C60264B01321A711C60254B9C
:1011C0001A711C600723244A13711460234A137197
:1011D0001460234A13711460224A13711460224A66
:1011E00013711460214A13711460214A1371146041
:1011F000204A14601371204A146013711F4A14604E
:1012000013711F4A146013711E4A1460137170BD6C
:101210006C06002010E000E0940400207FBB00007A
:10122000440600204C0600206406002054060020DE
:101230005C0600209C050020A4050020AC050020D1
:10124000B4050020BC050020C4050020CC0500200A
:10125000040600200C060020140600201C060020B6
:10126000240600202C060020340600203C06002026
:10127000D4050020DC050020E4050020EC0500205A
:10128000F4050020FC0500200D4885460D480E4958
:101290000E4A002302E0D458C4500433C4188C42D0
:1012A000F9D30B4A0B4C002301E013600432A24235
:1012B000FBD3FFF799FBFEF74FFFFFF7BFFEFEE7FB
:1012C0000010002000000020A003002024130008CC
:1012D000A003002084060020FEE70000F8B5C04609
:1012E000F8BC08BC9E467047F8B5C046F8BC08BCC0
:0412F0009E4670475F
:1012F40000000000000000003105000800000000AC
:1013040000000000D90500080000000000000000F3
:041314006506000862
:08131800350100081511000861
:0413200009010008B7
:1013240001000000000000000000000000000000B8
:1013340000000000000000000000000001000000A8
:101344000100000001000000010000000000000096
:101354000000000001000000000000000100000087
:101364000000000000000000010000000000000078
:101374000000000000000000010000000100000067
:101384000000000000000000000000000000000059
:101394000000000000000000010000000100000047
:1013A4000000000000000000010000000000000038
:1013B4000000000001000000000000000000000028
:1013C4000100000000000000000000000000000018
:1013D4000000000000000000000000000100000008
:1013E40000000000010000000100000001000000F6
:1013F40001000000000000000000000000000000E8
:1014040000000000000000000000000000000000D8
:1014140000000000000000000000000000000000C8
:1014240000000000010000000000000000000000B7
:1014340000000000000000000000000000000000A8
:101444000000000001000000000000000000000097
:101454000100000001000000000000000000000086
:101464000000000001000000010000000100000075
:101474000100000001000000010000000100000064
:101484000100000001000000010000000000000055
:101494000100000001000000010000000100000044
:1014A4000100000001000000010000000000000035
:1014B4000000000000000000010000000100000026
:1014C4000000000001000000010000000100000015
:1014D4000100000001000000010000000100000004
:1014E40001000000010000000100000001000000F4
:1014F40001000000010000000100000001000000E4
:1015040001000000010000000100000001000000D3
:1015140001000000010000000100000001000000C3
:1015240001000000010000000100000001000000B3
:1015340001000000010000000100000001000000A3
:101544000100000001000000010000000100000093
:101554000100000001000000010000000100000083
:101564000100000001000000010000000000000074
:101574000100000001000000010000000100000063
:101584000100000001000000000000000100000054
:101594000100000001000000010000000000000044
:1015A4000100000000000000010000000100000034
:1015B4000100000001000000010000000000000024
:1015C4000000000000000000010000000100000015
:1015D4000100000001000000010000000000000004
:1015E40001000000000000000100000001000000F4
:1015F40001000000010000000000000001000000E4
:1016040001000000000000000100000001000000D3
:1016140001000000000000000100000001000000C3
:1016240001000000000000000100000001000000B3
:1016340001000000000000000000000000000000A5
:101644000000000000000000000000000100000095
:101654000000000000000000000000000000000086
:101664000000000000000000010000000000000075
:101674000000000000000000000000000000000066
:101684000000000001000000000000000000000055
:101694000000000000000000000000000000000046
:1016A4000100000000000000000000000000000035
:1016B4000000000000000000000000000100000025
:040000050800128954
:00000001FF
